{
  "contractName": "Admin",
  "abi": [
    {
      "inputs": [],
      "stateMutability": "nonpayable",
      "type": "constructor"
    },
    {
      "anonymous": false,
      "inputs": [
        {
          "indexed": true,
          "internalType": "address",
          "name": "previousOwner",
          "type": "address"
        },
        {
          "indexed": true,
          "internalType": "address",
          "name": "newOwner",
          "type": "address"
        }
      ],
      "name": "OwnershipTransferred",
      "type": "event"
    },
    {
      "inputs": [],
      "name": "owner",
      "outputs": [
        {
          "internalType": "address",
          "name": "",
          "type": "address"
        }
      ],
      "stateMutability": "view",
      "type": "function"
    },
    {
      "inputs": [],
      "name": "renounceOwnership",
      "outputs": [],
      "stateMutability": "nonpayable",
      "type": "function"
    },
    {
      "inputs": [
        {
          "internalType": "address",
          "name": "newOwner",
          "type": "address"
        }
      ],
      "name": "transferOwnership",
      "outputs": [],
      "stateMutability": "nonpayable",
      "type": "function"
    },
    {
      "inputs": [
        {
          "internalType": "address",
          "name": "white",
          "type": "address"
        }
      ],
      "name": "whitelist",
      "outputs": [],
      "stateMutability": "nonpayable",
      "type": "function"
    },
    {
      "inputs": [
        {
          "internalType": "address",
          "name": "black",
          "type": "address"
        }
      ],
      "name": "blacklist",
      "outputs": [],
      "stateMutability": "nonpayable",
      "type": "function"
    },
    {
      "inputs": [
        {
          "internalType": "address",
          "name": "adr",
          "type": "address"
        }
      ],
      "name": "isWhiteListed",
      "outputs": [
        {
          "internalType": "bool",
          "name": "",
          "type": "bool"
        }
      ],
      "stateMutability": "view",
      "type": "function"
    },
    {
      "inputs": [
        {
          "internalType": "address",
          "name": "adr",
          "type": "address"
        }
      ],
      "name": "isBlackListed",
      "outputs": [
        {
          "internalType": "bool",
          "name": "",
          "type": "bool"
        }
      ],
      "stateMutability": "view",
      "type": "function"
    }
  ],
  "bytecode": "0x608060405234801561001057600080fd5b5061002d61002261003260201b60201c565b61003a60201b60201c565b6100fe565b600033905090565b60008060009054906101000a900473ffffffffffffffffffffffffffffffffffffffff169050816000806101000a81548173ffffffffffffffffffffffffffffffffffffffff021916908373ffffffffffffffffffffffffffffffffffffffff1602179055508173ffffffffffffffffffffffffffffffffffffffff168173ffffffffffffffffffffffffffffffffffffffff167f8be0079c531659141344cd1fd0a4f28419497f9722a3daafe3b4186f6b6457e060405160405180910390a35050565b6109858061010d6000396000f3fe608060405234801561001057600080fd5b506004361061007d5760003560e01c80639b19251a1161005b5780639b19251a146100da578063e47d6060146100f6578063f2fde38b14610126578063f9f92be4146101425761007d565b80636f9170f614610082578063715018a6146100b25780638da5cb5b146100bc575b600080fd5b61009c60048036038101906100979190610726565b61015e565b6040516100a9919061086e565b60405180910390f35b6100ba6101b4565b005b6100c461023c565b6040516100d19190610853565b60405180910390f35b6100f460048036038101906100ef9190610726565b610265565b005b610110600480360381019061010b9190610726565b6103ad565b60405161011d919061086e565b60405180910390f35b610140600480360381019061013b9190610726565b610404565b005b61015c60048036038101906101579190610726565b6104fc565b005b6000600160008373ffffffffffffffffffffffffffffffffffffffff1673ffffffffffffffffffffffffffffffffffffffff16815260200190815260200160002060009054906101000a900460ff169050919050565b6101bc610645565b73ffffffffffffffffffffffffffffffffffffffff166101da61023c565b73ffffffffffffffffffffffffffffffffffffffff1614610230576040517f08c379a0000000000000000000000000000000000000000000000000000000008152600401610227906108c9565b60405180910390fd5b61023a600061064d565b565b60008060009054906101000a900473ffffffffffffffffffffffffffffffffffffffff16905090565b61026d610645565b73ffffffffffffffffffffffffffffffffffffffff1661028b61023c565b73ffffffffffffffffffffffffffffffffffffffff16146102e1576040517f08c379a00000000000000000000000000000000000000000000000000000000081526004016102d8906108c9565b60405180910390fd5b80600073ffffffffffffffffffffffffffffffffffffffff168173ffffffffffffffffffffffffffffffffffffffff161415610352576040517f08c379a0000000000000000000000000000000000000000000000000000000008152600401610349906108a9565b60405180910390fd5b60018060008473ffffffffffffffffffffffffffffffffffffffff1673ffffffffffffffffffffffffffffffffffffffff16815260200190815260200160002060006101000a81548160ff0219169083151502179055505050565b6000600160008373ffffffffffffffffffffffffffffffffffffffff1673ffffffffffffffffffffffffffffffffffffffff16815260200190815260200160002060009054906101000a900460ff16159050919050565b61040c610645565b73ffffffffffffffffffffffffffffffffffffffff1661042a61023c565b73ffffffffffffffffffffffffffffffffffffffff1614610480576040517f08c379a0000000000000000000000000000000000000000000000000000000008152600401610477906108c9565b60405180910390fd5b600073ffffffffffffffffffffffffffffffffffffffff168173ffffffffffffffffffffffffffffffffffffffff1614156104f0576040517f08c379a00000000000000000000000000000000000000000000000000000000081526004016104e790610889565b60405180910390fd5b6104f98161064d565b50565b610504610645565b73ffffffffffffffffffffffffffffffffffffffff1661052261023c565b73ffffffffffffffffffffffffffffffffffffffff1614610578576040517f08c379a000000000000000000000000000000000000000000000000000000000815260040161056f906108c9565b60405180910390fd5b80600073ffffffffffffffffffffffffffffffffffffffff168173ffffffffffffffffffffffffffffffffffffffff1614156105e9576040517f08c379a00000000000000000000000000000000000000000000000000000000081526004016105e0906108a9565b60405180910390fd5b6000600160008473ffffffffffffffffffffffffffffffffffffffff1673ffffffffffffffffffffffffffffffffffffffff16815260200190815260200160002060006101000a81548160ff0219169083151502179055505050565b600033905090565b60008060009054906101000a900473ffffffffffffffffffffffffffffffffffffffff169050816000806101000a81548173ffffffffffffffffffffffffffffffffffffffff021916908373ffffffffffffffffffffffffffffffffffffffff1602179055508173ffffffffffffffffffffffffffffffffffffffff168173ffffffffffffffffffffffffffffffffffffffff167f8be0079c531659141344cd1fd0a4f28419497f9722a3daafe3b4186f6b6457e060405160405180910390a35050565b60008135905061072081610938565b92915050565b60006020828403121561073857600080fd5b600061074684828501610711565b91505092915050565b610758816108fa565b82525050565b6107678161090c565b82525050565b600061077a6026836108e9565b91507f4f776e61626c653a206e6577206f776e657220697320746865207a65726f206160008301527f64647265737300000000000000000000000000000000000000000000000000006020830152604082019050919050565b60006107e06019836108e9565b91507f4164647265732073686f756c64206e6f74206265206e756c6c000000000000006000830152602082019050919050565b60006108206020836108e9565b91507f4f776e61626c653a2063616c6c6572206973206e6f7420746865206f776e65726000830152602082019050919050565b6000602082019050610868600083018461074f565b92915050565b6000602082019050610883600083018461075e565b92915050565b600060208201905081810360008301526108a28161076d565b9050919050565b600060208201905081810360008301526108c2816107d3565b9050919050565b600060208201905081810360008301526108e281610813565b9050919050565b600082825260208201905092915050565b600061090582610918565b9050919050565b60008115159050919050565b600073ffffffffffffffffffffffffffffffffffffffff82169050919050565b610941816108fa565b811461094c57600080fd5b5056fea26469706673582212201229f09fb01a5f895473e915488d77888a0ed28a0ffc11ce871327bcef312cfd64736f6c63430008000033",
  "immutableReferences": {},
  "source": "// contracts/Admin.sol\n// SPDX-License-Identifier: MIT\npragma solidity 0.8.0;\nimport \"@openzeppelin/contracts/access/Ownable.sol\";\n\ncontract Admin is Ownable{\n    mapping(address=>bool) _WhiteList;\n    \n    \n    constructor() Ownable() {}\n    \n    modifier isNotNull(address addr)\n    {\n        require(addr!=address(0),\"Addres should not be null\");\n        _;\n    }\n    \n    function whitelist(address white) public onlyOwner() isNotNull(white)\n    {\n        _WhiteList[white]=true;\n    }\n    \n    function blacklist(address black) public onlyOwner() isNotNull(black)\n    {\n        _WhiteList[black]=false;\n    }\n    \n    function isWhiteListed(address adr) public view returns( bool)\n    {\n        return  _WhiteList[adr];\n    }\n        function isBlackListed(address adr) public view  returns( bool)\n    {\n        return  !_WhiteList[adr];\n    }\n    \n}\n",
  "sourcePath": "C:\\ethereum\\formation\\Truffle\\Votes\\contracts\\Admin.sol",
  "compiler": {
    "name": "solc",
    "version": "0.8.0+commit.c7dfd78e.Emscripten.clang"
  },
  "schemaVersion": "3.4.3",
  "updatedAt": "2021-10-25T14:19:49.499Z",
  "devdoc": {
    "kind": "dev",
    "methods": {
      "owner()": {
        "details": "Returns the address of the current owner."
      },
      "renounceOwnership()": {
        "details": "Leaves the contract without owner. It will not be possible to call `onlyOwner` functions anymore. Can only be called by the current owner. NOTE: Renouncing ownership will leave the contract without an owner, thereby removing any functionality that is only available to the owner."
      },
      "transferOwnership(address)": {
        "details": "Transfers ownership of the contract to a new account (`newOwner`). Can only be called by the current owner."
      }
    },
    "version": 1
  },
  "userdoc": {
    "kind": "user",
    "methods": {},
    "version": 1
  }
}