{
  "contractName": "Voting",
  "abi": [
    {
      "inputs": [],
      "stateMutability": "nonpayable",
      "type": "constructor"
    },
    {
      "anonymous": false,
      "inputs": [
        {
          "indexed": true,
          "internalType": "address",
          "name": "previousOwner",
          "type": "address"
        },
        {
          "indexed": true,
          "internalType": "address",
          "name": "newOwner",
          "type": "address"
        }
      ],
      "name": "OwnershipTransferred",
      "type": "event"
    },
    {
      "anonymous": false,
      "inputs": [
        {
          "indexed": false,
          "internalType": "uint256",
          "name": "proposalId",
          "type": "uint256"
        }
      ],
      "name": "ProposalRegistered",
      "type": "event"
    },
    {
      "anonymous": false,
      "inputs": [],
      "name": "ProposalsRegistrationEnded",
      "type": "event"
    },
    {
      "anonymous": false,
      "inputs": [],
      "name": "ProposalsRegistrationStarted",
      "type": "event"
    },
    {
      "anonymous": false,
      "inputs": [
        {
          "indexed": false,
          "internalType": "address",
          "name": "voter",
          "type": "address"
        },
        {
          "indexed": false,
          "internalType": "uint256",
          "name": "proposalId",
          "type": "uint256"
        }
      ],
      "name": "Voted",
      "type": "event"
    },
    {
      "anonymous": false,
      "inputs": [
        {
          "indexed": false,
          "internalType": "address",
          "name": "voterAddress",
          "type": "address"
        }
      ],
      "name": "VoterRegistered",
      "type": "event"
    },
    {
      "anonymous": false,
      "inputs": [],
      "name": "VotesTallied",
      "type": "event"
    },
    {
      "anonymous": false,
      "inputs": [],
      "name": "VotingSessionEnded",
      "type": "event"
    },
    {
      "anonymous": false,
      "inputs": [],
      "name": "VotingSessionStarted",
      "type": "event"
    },
    {
      "anonymous": false,
      "inputs": [
        {
          "indexed": false,
          "internalType": "enum Voting.WorkflowStatus",
          "name": "previousStatus",
          "type": "uint8"
        },
        {
          "indexed": false,
          "internalType": "enum Voting.WorkflowStatus",
          "name": "newStatus",
          "type": "uint8"
        }
      ],
      "name": "WorkflowStatusChange",
      "type": "event"
    },
    {
      "inputs": [
        {
          "internalType": "uint256",
          "name": "",
          "type": "uint256"
        }
      ],
      "name": "_Proposals",
      "outputs": [
        {
          "internalType": "string",
          "name": "description",
          "type": "string"
        },
        {
          "internalType": "uint256",
          "name": "voteCount",
          "type": "uint256"
        }
      ],
      "stateMutability": "view",
      "type": "function",
      "constant": true
    },
    {
      "inputs": [
        {
          "internalType": "address",
          "name": "black",
          "type": "address"
        }
      ],
      "name": "blacklist",
      "outputs": [],
      "stateMutability": "nonpayable",
      "type": "function"
    },
    {
      "inputs": [
        {
          "internalType": "address",
          "name": "adr",
          "type": "address"
        }
      ],
      "name": "isBlackListed",
      "outputs": [
        {
          "internalType": "bool",
          "name": "",
          "type": "bool"
        }
      ],
      "stateMutability": "view",
      "type": "function",
      "constant": true
    },
    {
      "inputs": [
        {
          "internalType": "address",
          "name": "adr",
          "type": "address"
        }
      ],
      "name": "isWhiteListed",
      "outputs": [
        {
          "internalType": "bool",
          "name": "",
          "type": "bool"
        }
      ],
      "stateMutability": "view",
      "type": "function",
      "constant": true
    },
    {
      "inputs": [],
      "name": "owner",
      "outputs": [
        {
          "internalType": "address",
          "name": "",
          "type": "address"
        }
      ],
      "stateMutability": "view",
      "type": "function",
      "constant": true
    },
    {
      "inputs": [],
      "name": "renounceOwnership",
      "outputs": [],
      "stateMutability": "nonpayable",
      "type": "function"
    },
    {
      "inputs": [
        {
          "internalType": "address",
          "name": "newOwner",
          "type": "address"
        }
      ],
      "name": "transferOwnership",
      "outputs": [],
      "stateMutability": "nonpayable",
      "type": "function"
    },
    {
      "inputs": [
        {
          "internalType": "address",
          "name": "white",
          "type": "address"
        }
      ],
      "name": "whitelist",
      "outputs": [],
      "stateMutability": "nonpayable",
      "type": "function"
    },
    {
      "inputs": [],
      "name": "winningProposalId",
      "outputs": [
        {
          "internalType": "uint256",
          "name": "",
          "type": "uint256"
        }
      ],
      "stateMutability": "view",
      "type": "function",
      "constant": true
    },
    {
      "inputs": [],
      "name": "getStatus",
      "outputs": [
        {
          "internalType": "uint256",
          "name": "",
          "type": "uint256"
        }
      ],
      "stateMutability": "view",
      "type": "function",
      "constant": true
    },
    {
      "inputs": [
        {
          "internalType": "address",
          "name": "addr",
          "type": "address"
        }
      ],
      "name": "registerVoter",
      "outputs": [],
      "stateMutability": "nonpayable",
      "type": "function"
    },
    {
      "inputs": [],
      "name": "startProposalRegistration",
      "outputs": [],
      "stateMutability": "nonpayable",
      "type": "function"
    },
    {
      "inputs": [],
      "name": "endProposalRegistration",
      "outputs": [],
      "stateMutability": "nonpayable",
      "type": "function"
    },
    {
      "inputs": [],
      "name": "startVotingSession",
      "outputs": [],
      "stateMutability": "nonpayable",
      "type": "function"
    },
    {
      "inputs": [],
      "name": "endVotingSession",
      "outputs": [],
      "stateMutability": "nonpayable",
      "type": "function"
    },
    {
      "inputs": [],
      "name": "endVotingCount",
      "outputs": [],
      "stateMutability": "nonpayable",
      "type": "function"
    },
    {
      "inputs": [
        {
          "internalType": "string",
          "name": "desc",
          "type": "string"
        }
      ],
      "name": "submitProposal",
      "outputs": [],
      "stateMutability": "nonpayable",
      "type": "function"
    },
    {
      "inputs": [
        {
          "internalType": "uint16",
          "name": "indx",
          "type": "uint16"
        }
      ],
      "name": "getProposal",
      "outputs": [
        {
          "internalType": "string",
          "name": "",
          "type": "string"
        }
      ],
      "stateMutability": "view",
      "type": "function",
      "constant": true
    },
    {
      "inputs": [],
      "name": "getProposalNb",
      "outputs": [
        {
          "internalType": "uint16",
          "name": "",
          "type": "uint16"
        }
      ],
      "stateMutability": "view",
      "type": "function",
      "constant": true
    },
    {
      "inputs": [
        {
          "internalType": "uint16",
          "name": "proposition",
          "type": "uint16"
        }
      ],
      "name": "voteFor",
      "outputs": [],
      "stateMutability": "nonpayable",
      "type": "function"
    },
    {
      "inputs": [],
      "name": "countVotes",
      "outputs": [],
      "stateMutability": "nonpayable",
      "type": "function"
    },
    {
      "inputs": [],
      "name": "getWinningProposition",
      "outputs": [
        {
          "internalType": "string",
          "name": "",
          "type": "string"
        }
      ],
      "stateMutability": "view",
      "type": "function",
      "constant": true
    }
  ],
  "bytecode": "0x60806040523480156200001157600080fd5b5062000032620000266200008a60201b60201c565b6200009260201b60201c565b6000600260006101000a81548160ff021916908360058111156200007f577f4e487b7100000000000000000000000000000000000000000000000000000000600052602160045260246000fd5b021790555062000156565b600033905090565b60008060009054906101000a900473ffffffffffffffffffffffffffffffffffffffff169050816000806101000a81548173ffffffffffffffffffffffffffffffffffffffff021916908373ffffffffffffffffffffffffffffffffffffffff1602179055508173ffffffffffffffffffffffffffffffffffffffff168173ffffffffffffffffffffffffffffffffffffffff167f8be0079c531659141344cd1fd0a4f28419497f9722a3daafe3b4186f6b6457e060405160405180910390a35050565b61294580620001666000396000f3fe608060405234801561001057600080fd5b50600436106101425760003560e01c8063a7bfab16116100b8578063e85a8f2a1161007c578063e85a8f2a146102f1578063eb54171d146102fb578063edb60fcc1461032c578063ee74c6781461034a578063f2fde38b14610354578063f9f92be41461037057610142565b8063a7bfab1614610273578063b2c0c2191461027d578063b647990a14610299578063c64963c5146102a3578063e47d6060146102c157610142565b80634e69d5601161010a5780634e69d560146101d75780636f9170f6146101f5578063715018a614610225578063736551f51461022f5780638da5cb5b146102395780639b19251a1461025757610142565b80630e262e58146101475780630f7e283814610165578063179d42501461016f578063373d6d5e1461019f57806338db6dd3146101bb575b600080fd5b61014f61038c565b60405161015c919061258d565b60405180910390f35b61016d610399565b005b61018960048036038101906101849190612228565b6105a1565b60405161019691906124bb565b60405180910390f35b6101b960048036038101906101b491906121e7565b610682565b005b6101d560048036038101906101d091906121be565b61093e565b005b6101df610ac1565b6040516101ec91906125a8565b60405180910390f35b61020f600480360381019061020a91906121be565b610b10565b60405161021c9190612477565b60405180910390f35b61022d610b66565b005b610237610bee565b005b610241610df6565b60405161024e9190612433565b60405180910390f35b610271600480360381019061026c91906121be565b610e1f565b005b61027b610f67565b005b61029760048036038101906102929190612228565b61116f565b005b6102a161152d565b005b6102ab611677565b6040516102b891906125a8565b60405180910390f35b6102db60048036038101906102d691906121be565b61167d565b6040516102e89190612477565b60405180910390f35b6102f96116d4565b005b61031560048036038101906103109190612251565b6118db565b6040516103239291906124dd565b60405180910390f35b610334611997565b60405161034191906124bb565b60405180910390f35b610352611b38565b005b61036e600480360381019061036991906121be565b611d3f565b005b61038a600480360381019061038591906121be565b611e37565b005b6000600580549050905090565b6103a1611f80565b73ffffffffffffffffffffffffffffffffffffffff166103bf610df6565b73ffffffffffffffffffffffffffffffffffffffff1614610415576040517f08c379a000000000000000000000000000000000000000000000000000000000815260040161040c9061256d565b60405180910390fd5b6000806005811115610450577f4e487b7100000000000000000000000000000000000000000000000000000000600052602160045260246000fd5b600260009054906101000a900460ff166005811115610498577f4e487b7100000000000000000000000000000000000000000000000000000000600052602160045260246000fd5b146104d8576040517f08c379a00000000000000000000000000000000000000000000000000000000081526004016104cf9061250d565b60405180910390fd5b6001600260006101000a81548160ff02191690836005811115610524577f4e487b7100000000000000000000000000000000000000000000000000000000600052602160045260246000fd5b02179055507f344c25562921d075a298d34b6dd1fd00d36ff293974539dfd4a8c625d9f0064c60405160405180910390a17f0a97a4ee45751e2abf3e4fc8946939630b11b371ea8ae39ccdc3056e98f5cc3f6000600260009054906101000a900460ff16604051610596929190612492565b60405180910390a150565b606060058261ffff16815481106105e1577f4e487b7100000000000000000000000000000000000000000000000000000000600052603260045260246000fd5b906000526020600020906002020160000180546105fd90612743565b80601f016020809104026020016040519081016040528092919081815260200182805461062990612743565b80156106765780601f1061064b57610100808354040283529160200191610676565b820191906000526020600020905b81548152906001019060200180831161065957829003601f168201915b50505050509050919050565b60018060058111156106bd577f4e487b7100000000000000000000000000000000000000000000000000000000600052602160045260246000fd5b600260009054906101000a900460ff166005811115610705577f4e487b7100000000000000000000000000000000000000000000000000000000600052602160045260246000fd5b14610745576040517f08c379a000000000000000000000000000000000000000000000000000000000815260040161073c9061250d565b60405180910390fd5b60005b6005805490508161ffff1610156108815761083a60058261ffff168154811061079a577f4e487b7100000000000000000000000000000000000000000000000000000000600052603260045260246000fd5b906000526020600020906002020160000180546107b690612743565b80601f01602080910402602001604051908101604052809291908181526020018280546107e290612743565b801561082f5780601f106108045761010080835404028352916020019161082f565b820191906000526020600020905b81548152906001019060200180831161081257829003601f168201915b505050505084611f88565b1561086e577f4e487b7100000000000000000000000000000000000000000000000000000000600052600160045260246000fd5b808061087990612775565b915050610748565b506000604051806040016040528084815260200160008152509050600581908060018154018082558091505060019003906000526020600020906002020160009091909190915060008201518160000190805190602001906108e4929190612074565b506020820151816001015550507f92e393e9b54e2f801d3ea4beb0c5e71a21cc34a5d34b77d0fb8a3aa1650dc18f60016005805490506109249190612640565b60405161093191906125a8565b60405180910390a1505050565b610946611f80565b73ffffffffffffffffffffffffffffffffffffffff16610964610df6565b73ffffffffffffffffffffffffffffffffffffffff16146109ba576040517f08c379a00000000000000000000000000000000000000000000000000000000081526004016109b19061256d565b60405180910390fd5b60008060058111156109f5577f4e487b7100000000000000000000000000000000000000000000000000000000600052602160045260246000fd5b600260009054906101000a900460ff166005811115610a3d577f4e487b7100000000000000000000000000000000000000000000000000000000600052602160045260246000fd5b14610a7d576040517f08c379a0000000000000000000000000000000000000000000000000000000008152600401610a749061250d565b60405180910390fd5b610a8682610e1f565b7fb6be2187d059cc2a55fe29e0e503b566e1e0f8c8780096e185429350acffd3dd82604051610ab59190612433565b60405180910390a15050565b6000600260009054906101000a900460ff166005811115610b0b577f4e487b7100000000000000000000000000000000000000000000000000000000600052602160045260246000fd5b905090565b6000600160008373ffffffffffffffffffffffffffffffffffffffff1673ffffffffffffffffffffffffffffffffffffffff16815260200190815260200160002060009054906101000a900460ff169050919050565b610b6e611f80565b73ffffffffffffffffffffffffffffffffffffffff16610b8c610df6565b73ffffffffffffffffffffffffffffffffffffffff1614610be2576040517f08c379a0000000000000000000000000000000000000000000000000000000008152600401610bd99061256d565b60405180910390fd5b610bec6000611fb0565b565b610bf6611f80565b73ffffffffffffffffffffffffffffffffffffffff16610c14610df6565b73ffffffffffffffffffffffffffffffffffffffff1614610c6a576040517f08c379a0000000000000000000000000000000000000000000000000000000008152600401610c619061256d565b60405180910390fd5b6004806005811115610ca5577f4e487b7100000000000000000000000000000000000000000000000000000000600052602160045260246000fd5b600260009054906101000a900460ff166005811115610ced577f4e487b7100000000000000000000000000000000000000000000000000000000600052602160045260246000fd5b14610d2d576040517f08c379a0000000000000000000000000000000000000000000000000000000008152600401610d249061250d565b60405180910390fd5b6005600260006101000a81548160ff02191690836005811115610d79577f4e487b7100000000000000000000000000000000000000000000000000000000600052602160045260246000fd5b02179055507f0e5e95ff8725ab3e7a4b6b59998a4c344c2aa8d1485f5e60cb7f337768e6134760405160405180910390a17f0a97a4ee45751e2abf3e4fc8946939630b11b371ea8ae39ccdc3056e98f5cc3f6004600260009054906101000a900460ff16604051610deb929190612492565b60405180910390a150565b60008060009054906101000a900473ffffffffffffffffffffffffffffffffffffffff16905090565b610e27611f80565b73ffffffffffffffffffffffffffffffffffffffff16610e45610df6565b73ffffffffffffffffffffffffffffffffffffffff1614610e9b576040517f08c379a0000000000000000000000000000000000000000000000000000000008152600401610e929061256d565b60405180910390fd5b80600073ffffffffffffffffffffffffffffffffffffffff168173ffffffffffffffffffffffffffffffffffffffff161415610f0c576040517f08c379a0000000000000000000000000000000000000000000000000000000008152600401610f039061254d565b60405180910390fd5b60018060008473ffffffffffffffffffffffffffffffffffffffff1673ffffffffffffffffffffffffffffffffffffffff16815260200190815260200160002060006101000a81548160ff0219169083151502179055505050565b610f6f611f80565b73ffffffffffffffffffffffffffffffffffffffff16610f8d610df6565b73ffffffffffffffffffffffffffffffffffffffff1614610fe3576040517f08c379a0000000000000000000000000000000000000000000000000000000008152600401610fda9061256d565b60405180910390fd5b600380600581111561101e577f4e487b7100000000000000000000000000000000000000000000000000000000600052602160045260246000fd5b600260009054906101000a900460ff166005811115611066577f4e487b7100000000000000000000000000000000000000000000000000000000600052602160045260246000fd5b146110a6576040517f08c379a000000000000000000000000000000000000000000000000000000000815260040161109d9061250d565b60405180910390fd5b6004600260006101000a81548160ff021916908360058111156110f2577f4e487b7100000000000000000000000000000000000000000000000000000000600052602160045260246000fd5b02179055507fc379d349a6301baf50fb2f98d829f4ae10b1cdb7c66f4e4d8117302df7b8cd4c60405160405180910390a17f0a97a4ee45751e2abf3e4fc8946939630b11b371ea8ae39ccdc3056e98f5cc3f6003600260009054906101000a900460ff16604051611164929190612492565b60405180910390a150565b60038060058111156111aa577f4e487b7100000000000000000000000000000000000000000000000000000000600052602160045260246000fd5b600260009054906101000a900460ff1660058111156111f2577f4e487b7100000000000000000000000000000000000000000000000000000000600052602160045260246000fd5b14611232576040517f08c379a00000000000000000000000000000000000000000000000000000000081526004016112299061250d565b60405180910390fd5b61123b33610b10565b61126e577f4e487b7100000000000000000000000000000000000000000000000000000000600052600160045260246000fd5b600460003373ffffffffffffffffffffffffffffffffffffffff1673ffffffffffffffffffffffffffffffffffffffff16815260200190815260200160002060000160009054906101000a900460ff16156112f2577f4e487b7100000000000000000000000000000000000000000000000000000000600052600160045260246000fd5b60058054905061ffff168261ffff1610611335577f4e487b7100000000000000000000000000000000000000000000000000000000600052600160045260246000fd5b6001600460003373ffffffffffffffffffffffffffffffffffffffff1673ffffffffffffffffffffffffffffffffffffffff16815260200190815260200160002060000160006101000a81548160ff0219169083151502179055508161ffff16600460003373ffffffffffffffffffffffffffffffffffffffff1673ffffffffffffffffffffffffffffffffffffffff1681526020019081526020016000206001018190555060058261ffff1681548110611419577f4e487b7100000000000000000000000000000000000000000000000000000000600052603260045260246000fd5b9060005260206000209060020201600101600081548092919061143b906127a0565b919050555060056003548154811061147c577f4e487b7100000000000000000000000000000000000000000000000000000000600052603260045260246000fd5b90600052602060002090600202016001015460058361ffff16815481106114cc577f4e487b7100000000000000000000000000000000000000000000000000000000600052603260045260246000fd5b90600052602060002090600202016001015411156114f0578161ffff166003819055505b7f4d99b957a2bc29a30ebd96a7be8e68fe50a3c701db28a91436490b7d53870ca4338360405161152192919061244e565b60405180910390a15050565b6004806005811115611568577f4e487b7100000000000000000000000000000000000000000000000000000000600052602160045260246000fd5b600260009054906101000a900460ff1660058111156115b0577f4e487b7100000000000000000000000000000000000000000000000000000000600052602160045260246000fd5b146115f0576040517f08c379a00000000000000000000000000000000000000000000000000000000081526004016115e79061250d565b60405180910390fd5b6115f8611f80565b73ffffffffffffffffffffffffffffffffffffffff16611616610df6565b73ffffffffffffffffffffffffffffffffffffffff161461166c576040517f08c379a00000000000000000000000000000000000000000000000000000000081526004016116639061256d565b60405180910390fd5b611674610bee565b50565b60035481565b6000600160008373ffffffffffffffffffffffffffffffffffffffff1673ffffffffffffffffffffffffffffffffffffffff16815260200190815260200160002060009054906101000a900460ff16159050919050565b6116dc611f80565b73ffffffffffffffffffffffffffffffffffffffff166116fa610df6565b73ffffffffffffffffffffffffffffffffffffffff1614611750576040517f08c379a00000000000000000000000000000000000000000000000000000000081526004016117479061256d565b60405180910390fd5b600180600581111561178b577f4e487b7100000000000000000000000000000000000000000000000000000000600052602160045260246000fd5b600260009054906101000a900460ff1660058111156117d3577f4e487b7100000000000000000000000000000000000000000000000000000000600052602160045260246000fd5b14611813576040517f08c379a000000000000000000000000000000000000000000000000000000000815260040161180a9061250d565b60405180910390fd5b60028060006101000a81548160ff0219169083600581111561185e577f4e487b7100000000000000000000000000000000000000000000000000000000600052602160045260246000fd5b02179055507f240cb87b2e4df4c318e72bd714d45a9cad60249e883ff56b1fffd83a4595a8fa60405160405180910390a17f0a97a4ee45751e2abf3e4fc8946939630b11b371ea8ae39ccdc3056e98f5cc3f6001600260009054906101000a900460ff166040516118d0929190612492565b60405180910390a150565b600581815481106118eb57600080fd5b906000526020600020906002020160009150905080600001805461190e90612743565b80601f016020809104026020016040519081016040528092919081815260200182805461193a90612743565b80156119875780601f1061195c57610100808354040283529160200191611987565b820191906000526020600020905b81548152906001019060200180831161196a57829003601f168201915b5050505050908060010154905082565b606060058060058111156119d4577f4e487b7100000000000000000000000000000000000000000000000000000000600052602160045260246000fd5b600260009054906101000a900460ff166005811115611a1c577f4e487b7100000000000000000000000000000000000000000000000000000000600052602160045260246000fd5b14611a5c576040517f08c379a0000000000000000000000000000000000000000000000000000000008152600401611a539061250d565b60405180910390fd5b600560035481548110611a98577f4e487b7100000000000000000000000000000000000000000000000000000000600052603260045260246000fd5b90600052602060002090600202016000018054611ab490612743565b80601f0160208091040260200160405190810160405280929190818152602001828054611ae090612743565b8015611b2d5780601f10611b0257610100808354040283529160200191611b2d565b820191906000526020600020905b815481529060010190602001808311611b1057829003601f168201915b505050505091505090565b611b40611f80565b73ffffffffffffffffffffffffffffffffffffffff16611b5e610df6565b73ffffffffffffffffffffffffffffffffffffffff1614611bb4576040517f08c379a0000000000000000000000000000000000000000000000000000000008152600401611bab9061256d565b60405180910390fd5b6002806005811115611bef577f4e487b7100000000000000000000000000000000000000000000000000000000600052602160045260246000fd5b600260009054906101000a900460ff166005811115611c37577f4e487b7100000000000000000000000000000000000000000000000000000000600052602160045260246000fd5b14611c77576040517f08c379a0000000000000000000000000000000000000000000000000000000008152600401611c6e9061250d565b60405180910390fd5b6003600260006101000a81548160ff02191690836005811115611cc3577f4e487b7100000000000000000000000000000000000000000000000000000000600052602160045260246000fd5b02179055507f1b8e19a458c1bcd88553332c518cc5c4e2d5793e712ee766d4f1c14f672ef1f560405160405180910390a17f0a97a4ee45751e2abf3e4fc8946939630b11b371ea8ae39ccdc3056e98f5cc3f60028060009054906101000a900460ff16604051611d34929190612492565b60405180910390a150565b611d47611f80565b73ffffffffffffffffffffffffffffffffffffffff16611d65610df6565b73ffffffffffffffffffffffffffffffffffffffff1614611dbb576040517f08c379a0000000000000000000000000000000000000000000000000000000008152600401611db29061256d565b60405180910390fd5b600073ffffffffffffffffffffffffffffffffffffffff168173ffffffffffffffffffffffffffffffffffffffff161415611e2b576040517f08c379a0000000000000000000000000000000000000000000000000000000008152600401611e229061252d565b60405180910390fd5b611e3481611fb0565b50565b611e3f611f80565b73ffffffffffffffffffffffffffffffffffffffff16611e5d610df6565b73ffffffffffffffffffffffffffffffffffffffff1614611eb3576040517f08c379a0000000000000000000000000000000000000000000000000000000008152600401611eaa9061256d565b60405180910390fd5b80600073ffffffffffffffffffffffffffffffffffffffff168173ffffffffffffffffffffffffffffffffffffffff161415611f24576040517f08c379a0000000000000000000000000000000000000000000000000000000008152600401611f1b9061254d565b60405180910390fd5b6000600160008473ffffffffffffffffffffffffffffffffffffffff1673ffffffffffffffffffffffffffffffffffffffff16815260200190815260200160002060006101000a81548160ff0219169083151502179055505050565b600033905090565b600081518351148015611fa8575081805190602001208380519060200120145b905092915050565b60008060009054906101000a900473ffffffffffffffffffffffffffffffffffffffff169050816000806101000a81548173ffffffffffffffffffffffffffffffffffffffff021916908373ffffffffffffffffffffffffffffffffffffffff1602179055508173ffffffffffffffffffffffffffffffffffffffff168173ffffffffffffffffffffffffffffffffffffffff167f8be0079c531659141344cd1fd0a4f28419497f9722a3daafe3b4186f6b6457e060405160405180910390a35050565b82805461208090612743565b90600052602060002090601f0160209004810192826120a257600085556120e9565b82601f106120bb57805160ff19168380011785556120e9565b828001600101855582156120e9579182015b828111156120e85782518255916020019190600101906120cd565b5b5090506120f691906120fa565b5090565b5b808211156121135760008160009055506001016120fb565b5090565b600061212a612125846125f4565b6125c3565b90508281526020810184848401111561214257600080fd5b61214d848285612701565b509392505050565b600081359050612164816128ca565b92915050565b600082601f83011261217b57600080fd5b813561218b848260208601612117565b91505092915050565b6000813590506121a3816128e1565b92915050565b6000813590506121b8816128f8565b92915050565b6000602082840312156121d057600080fd5b60006121de84828501612155565b91505092915050565b6000602082840312156121f957600080fd5b600082013567ffffffffffffffff81111561221357600080fd5b61221f8482850161216a565b91505092915050565b60006020828403121561223a57600080fd5b600061224884828501612194565b91505092915050565b60006020828403121561226357600080fd5b6000612271848285016121a9565b91505092915050565b61228381612674565b82525050565b61229281612686565b82525050565b6122a1816126dd565b82525050565b60006122b282612624565b6122bc818561262f565b93506122cc818560208601612710565b6122d5816128a5565b840191505092915050565b60006122ed601b8361262f565b91507f46756e6374696f6e2063616c6c20666f7262696464656e206e6f7700000000006000830152602082019050919050565b600061232d60268361262f565b91507f4f776e61626c653a206e6577206f776e657220697320746865207a65726f206160008301527f64647265737300000000000000000000000000000000000000000000000000006020830152604082019050919050565b600061239360198361262f565b91507f4164647265732073686f756c64206e6f74206265206e756c6c000000000000006000830152602082019050919050565b60006123d360208361262f565b91507f4f776e61626c653a2063616c6c6572206973206e6f7420746865206f776e65726000830152602082019050919050565b61240f816126a5565b82525050565b61241e816126ef565b82525050565b61242d816126d3565b82525050565b6000602082019050612448600083018461227a565b92915050565b6000604082019050612463600083018561227a565b6124706020830184612415565b9392505050565b600060208201905061248c6000830184612289565b92915050565b60006040820190506124a76000830185612298565b6124b46020830184612298565b9392505050565b600060208201905081810360008301526124d581846122a7565b905092915050565b600060408201905081810360008301526124f781856122a7565b90506125066020830184612424565b9392505050565b60006020820190508181036000830152612526816122e0565b9050919050565b6000602082019050818103600083015261254681612320565b9050919050565b6000602082019050818103600083015261256681612386565b9050919050565b60006020820190508181036000830152612586816123c6565b9050919050565b60006020820190506125a26000830184612406565b92915050565b60006020820190506125bd6000830184612424565b92915050565b6000604051905081810181811067ffffffffffffffff821117156125ea576125e9612876565b5b8060405250919050565b600067ffffffffffffffff82111561260f5761260e612876565b5b601f19601f8301169050602081019050919050565b600081519050919050565b600082825260208201905092915050565b600061264b826126d3565b9150612656836126d3565b925082821015612669576126686127e9565b5b828203905092915050565b600061267f826126b3565b9050919050565b60008115159050919050565b60008190506126a0826128b6565b919050565b600061ffff82169050919050565b600073ffffffffffffffffffffffffffffffffffffffff82169050919050565b6000819050919050565b60006126e882612692565b9050919050565b60006126fa826126a5565b9050919050565b82818337600083830152505050565b60005b8381101561272e578082015181840152602081019050612713565b8381111561273d576000848401525b50505050565b6000600282049050600182168061275b57607f821691505b6020821081141561276f5761276e612847565b5b50919050565b6000612780826126a5565b915061ffff821415612795576127946127e9565b5b600182019050919050565b60006127ab826126d3565b91507fffffffffffffffffffffffffffffffffffffffffffffffffffffffffffffffff8214156127de576127dd6127e9565b5b600182019050919050565b7f4e487b7100000000000000000000000000000000000000000000000000000000600052601160045260246000fd5b7f4e487b7100000000000000000000000000000000000000000000000000000000600052602160045260246000fd5b7f4e487b7100000000000000000000000000000000000000000000000000000000600052602260045260246000fd5b7f4e487b7100000000000000000000000000000000000000000000000000000000600052604160045260246000fd5b6000601f19601f8301169050919050565b600681106128c7576128c6612818565b5b50565b6128d381612674565b81146128de57600080fd5b50565b6128ea816126a5565b81146128f557600080fd5b50565b612901816126d3565b811461290c57600080fd5b5056fea26469706673582212202fcb820a41e7ed6d7a3169197996fc74077793bd9d594f4e67a838c2eeffb65764736f6c63430008000033",
  "immutableReferences": {},
  "source": "// contracts/Voting\n// SPDX-License-Identifier: MIT\npragma solidity 0.8.0;\nimport \"./Admin.sol\";\n\n\n\n    \ncontract Voting is Admin {\n\n    struct Voter {\n    bool hasVoted;\n    uint votedProposalId;\n    }\n    \n    struct Proposal {\n    string description;\n    uint voteCount;\n    }\n    \n    enum WorkflowStatus {\n        RegisteringVoters,\n        ProposalsRegistrationStarted,\n        ProposalsRegistrationEnded,\n        VotingSessionStarted,\n        VotingSessionEnded,\n        VotesTallied\n    }\n    \n\n    //Status of the contract\n    WorkflowStatus _Status;\n    modifier onlySatus(WorkflowStatus status)\n    {\n        require(_Status==status,\"Function call forbidden now\");\n        _;\n    }\n\n    uint public winningProposalId;  // Store the winner Id\n    \n    //DB for VoterRegistered & Proposals\n    mapping(address=>Voter) _Voters;    // Mapping of voter's addresses    \n    Proposal[] public _Proposals;           // List of Proposals\n    \n    \n    \n    //------------------ Events \n    event VoterRegistered(address voterAddress);\n    event ProposalsRegistrationStarted();\n    event ProposalsRegistrationEnded();\n    event ProposalRegistered(uint proposalId);\n    event VotingSessionStarted();\n    event VotingSessionEnded();\n    event Voted (address voter, uint proposalId);\n    event VotesTallied();\n    event WorkflowStatusChange(WorkflowStatus previousStatus, WorkflowStatus\n    newStatus);\n    \n    \n    \n    \n    constructor() Admin()\n    {\n        // We start the state machine\n        _Status=WorkflowStatus.RegisteringVoters;\n    }    \n    \n    \n    //-------------------- Admin functions\n\n    function getStatus()  external view returns(uint)\n    {\n        return uint(_Status);\n    }\n    function registerVoter(address addr) public onlyOwner() onlySatus(WorkflowStatus.RegisteringVoters)\n    {\n        whitelist(addr);\n        // No need to initial voter structure, the default values are fine\n        emit VoterRegistered(addr);\n    }\n    \n    function startProposalRegistration() public onlyOwner() onlySatus(WorkflowStatus.RegisteringVoters)\n    {\n        _Status = WorkflowStatus.ProposalsRegistrationStarted;\n        emit ProposalsRegistrationStarted();\n        emit WorkflowStatusChange(WorkflowStatus.RegisteringVoters,_Status);\n    }\n    \n    function endProposalRegistration() public onlyOwner() onlySatus(WorkflowStatus.ProposalsRegistrationStarted)\n    {\n        _Status = WorkflowStatus.ProposalsRegistrationEnded;\n        emit ProposalsRegistrationEnded();\n        emit WorkflowStatusChange(WorkflowStatus.ProposalsRegistrationStarted,_Status);\n    }\n    function startVotingSession() public onlyOwner() onlySatus(WorkflowStatus.ProposalsRegistrationEnded)\n    {\n        _Status = WorkflowStatus.VotingSessionStarted;\n        emit VotingSessionStarted();\n        emit WorkflowStatusChange(WorkflowStatus.ProposalsRegistrationEnded,_Status);\n    }\n    function endVotingSession() public onlyOwner() onlySatus(WorkflowStatus.VotingSessionStarted)\n    {\n        _Status = WorkflowStatus.VotingSessionEnded;\n        emit VotingSessionEnded();\n        emit WorkflowStatusChange(WorkflowStatus.VotingSessionStarted,_Status);\n    }\n    function endVotingCount() public onlyOwner() onlySatus(WorkflowStatus.VotingSessionEnded)\n    {\n        _Status = WorkflowStatus.VotesTallied;\n        emit VotesTallied();\n        emit WorkflowStatusChange(WorkflowStatus.VotingSessionEnded,_Status);\n    }\n    \n    \n    //------------------- Tools \n    function memcmp(bytes memory a, bytes memory b) internal pure returns(bool){\n        return (a.length == b.length) && (keccak256(a) == keccak256(b));\n    }\n    \n    \n    // Generic functions\n    \n    //------------------- Proposal Utilities\n    function submitProposal(string memory desc) public  onlySatus(WorkflowStatus.ProposalsRegistrationStarted)\n    {\n        for(uint16 i =0; i<_Proposals.length;i++)\n            assert(!memcmp(bytes(_Proposals[i].description),bytes(desc)));  // check if proposal is already in\n        \n        Proposal memory prop = Proposal({description:desc,voteCount:0});        \n        _Proposals.push(prop); // add the proposal\n        emit ProposalRegistered(_Proposals.length-1);\n    }\n    \n    function getProposal(uint16 indx) public view returns(string memory) {\n        return _Proposals[indx].description;\n    }\n    function getProposalNb() public view returns(uint16) {\n        return uint16(_Proposals.length);\n    }\n      \n\n\n    //------------------- Vote Utilities\n    function voteFor(uint16 proposition) public onlySatus(WorkflowStatus.VotingSessionStarted) {\n        assert(isWhiteListed(msg.sender)); // Make sure the sender is WhiteListed\n        assert( !_Voters[msg.sender].hasVoted); // Make sure the sender has not already voted\n        assert(proposition<uint16(_Proposals.length)); // Make sure the index is VotesTallied\n                \n        _Voters[msg.sender].hasVoted = true;\n        _Voters[msg.sender].votedProposalId = proposition;\n        _Proposals[proposition].voteCount++;\n        if(_Proposals[proposition].voteCount>_Proposals[winningProposalId].voteCount)\n        {\n            winningProposalId = proposition;\n        }\n        emit Voted(msg.sender, proposition);\n    }\n    \n    function countVotes() public onlySatus(WorkflowStatus.VotingSessionEnded) onlyOwner()\n    {\n        endVotingCount();\n    }\n    \n    function getWinningProposition() onlySatus(WorkflowStatus.VotesTallied) public view returns(string memory)\n    {\n        return _Proposals[winningProposalId].description;\n    }\n}",
  "sourcePath": "C:\\ethereum\\formation\\Truffle\\Votes\\contracts\\Voting.sol",
  "compiler": {
    "name": "solc",
    "version": "0.8.0+commit.c7dfd78e.Emscripten.clang"
  },
  "schemaVersion": "3.4.3",
  "updatedAt": "2021-10-25T14:19:54.808Z",
  "networkType": "ethereum",
  "devdoc": {
    "kind": "dev",
    "methods": {
      "owner()": {
        "details": "Returns the address of the current owner."
      },
      "renounceOwnership()": {
        "details": "Leaves the contract without owner. It will not be possible to call `onlyOwner` functions anymore. Can only be called by the current owner. NOTE: Renouncing ownership will leave the contract without an owner, thereby removing any functionality that is only available to the owner."
      },
      "transferOwnership(address)": {
        "details": "Transfers ownership of the contract to a new account (`newOwner`). Can only be called by the current owner."
      }
    },
    "version": 1
  },
  "userdoc": {
    "kind": "user",
    "methods": {},
    "version": 1
  }
}